:020000040800F2
:10000000000001202510000823100008211000081E
:100010002110000821100008211000080000000035
:10002000000000000000000000000000552B000848
:100030002310000800000000B12B0008F52B000879
:1000400021100008211000082110000821100008CC
:1000500021100008211000082110000821100008BC
:1000600021100008211000082110000821100008AC
:10007000211000082110000821100008211000089C
:10008000211000082110000821100008211000088C
:10009000E1030008211000082110000821100008C9
:1000A000211000082110000821100008211000086C
:1000B000211000082110000821100008211000085C
:1000C000211000082110000821100008211000084C
:1000D000211000082110000821100008211000083C
:1000E000211000082110000821100008211000082C
:1000F000211000082110000821100008211000081C
:10010000211000082110000821100008211000080B
:1001100021100008211000082110000821100008FB
:1001200021100008211000082110000821100008EB
:1001300021100008211000082110000821100008DB
:100140006D0500082110000821100008211000088A
:1001500080B540F2077540F20F77104C104E84B016
:100160004FF0FF326946206801F036FA0128F7D1D6
:10017000BDF80430302B0CD0AB42F1D100F072FB53
:1001800000230A2269463068ADF8047000F0F6FFDB
:10019000E6E7684600F0BAFAE2E700BF2000002078
:1001A0002400002000B587B00F4D0DF10F0403E0CF
:1001B0009DF8170001F0EEFF4FF0FF32286802A90A
:1001C00001F00AFA00239DF80E20BDF80C10CDE9CD
:1001D000002402981A4600F081FC0130E8D10A2080
:1001E00001F0D8FFEEE700BF2400002070B5002426
:1001F0006F4B8AB01021224605201C8000F082FF40
:1002000005466C4B1021224605201D6000F07AFF48
:100210000246694B4FF440701A6000F0E3FE40F272
:10022000993000F0DFFE40F29A3000F0DBFE40F241
:10023000023000F0D7FE40F2033000F0D3FE4FF45E
:100240000063022221465D4800F01EFD4FF400616C
:100250005A4800F04EFD4FF48053022203215748C4
:1002600000F012FD142000F027FF0121142000F0FF
:100270002FFF534820234168022241F4800141604E
:10028000214600F5406000F0FFFC20214D4800F0C1
:1002900030FD4023022203214A4800F0F5FC4020B3
:1002A00000F00AFF0221402000F012FF464800F053
:1002B00013FB464800F010FB01254FF4C0024FF439
:1002C000E02304260592049321462B462A463E4805
:1002D000089407940696039402950194009400F004
:1002E00007FB08B100BFFDE74FF4801C4FF440242A
:1002F00001460890079003900190009004942B46CB
:100300002A46324806960295CDF814C000F0F0FA5D
:10031000044608B100BFFDE74EF2E00602950190E9
:100320004FF4C0534FF440624FF4C061009600F0A8
:10033000C1FB4FF4D05128468DE832004FF42853CA
:100340004FF4E05200F0B6FB4FF4BC4148F2A0631A
:100350008DE832004FF40A42022000F0ABFB4FF46C
:10036000C063029503251A4619460E200194009693
:1003700000F0A0FB0221144800F0ACFB022113485E
:1003800000F0A8FB234680221149019400951148F2
:1003900001F00CFC802223460F49019400950F4880
:1003A00001F004FC0AB0BDE8704000F043BA00BFA1
:1003B0001C00002024000020200000200008014034
:1003C00000000140000C0140006400400068004053
:1003D00090310008A501000898310008510100087B
:1003E00030B500248DB05D4D0DF127020DF12603CF
:1003F0000DF11B01049203930DF11A020DF1190383
:10040000029101920093012209AB214628460594EE
:1004100000F0E3FBBDF824300895B3F5A87F55D074
:1004200029D8D02B60D048D8602B3AD0C02B72D1BD
:100430004B4A9DF827305178C3F3C00C494D6CF3FB
:10044000000151709DF828002978C3F30213C0F30E
:10045000401060F30001032B297075D0042B1AD0D3
:10046000012B537868D064F341035370537864F3DD
:10047000820353700FE040F23542934240D0B3F50F
:100480008A6F13D0B3F53C7F45D19DF82C30354AA7
:100490003C3B1BB253810021304800F093FB0DB070
:1004A00030BD9DF82D202E4B1A70F4E79DF82E30AC
:1004B0002C4AC3F306039371EDE7E02B2BD19DF893
:1004C0002B30284AC3F3C203D370E4E79DF82830E9
:1004D0009DF827201B092349A3F5007302F07F0232
:1004E00003EB02138B80D6E79DF828209DF8293076
:1004F0001C49C2F30312C3F303038A704B70CAE7AB
:100500009DF82C30174AC3EB43115B0803EB410302
:100510009BB21381BFE7144A0023106808A907AAF9
:1005200000F0C2FF079B002BB5D04FF0E0234FF047
:100530008052C3F8042DAEE743F0040353705378A0
:1005400064F341035370A6E7537843F002035370FA
:10055000537864F3820353709DE700BF006400404A
:100560001C000020100000202000002030B50024D6
:100570008DB05D4D0DF127020DF126030DF11B012C
:10058000049203930DF11A020DF1190302910192E5
:100590000093012209AB21462846059400F01DFB7B
:1005A000BDF824300895B3F5A87F55D029D8D02BB5
:1005B00060D048D8602B3AD0C02B72D14B4A9DF8FE
:1005C00027305178C3F3C00C494D6CF300015170D2
:1005D0009DF828002978C3F30213C0F3401060F39C
:1005E0000001032B297075D0042B1AD0012B5378EE
:1005F00068D064F341035370537864F382035370FB
:100600000FE040F23542934240D0B3F58A6F13D0E9
:10061000B3F53C7F45D19DF82C30354A3C3B1BB2AD
:1006200053810021304800F0CDFA0DB030BD9DF867
:100630002D202E4B1A70F4E79DF82E302C4AC3F370
:1006400006039371EDE7E02B2BD19DF82B30284A60
:10065000C3F3C203D370E4E79DF828309DF8272048
:100660001B092349A3F5007302F07F0203EB021379
:100670008B80D6E79DF828209DF829301C49C2F3CD
:100680000312C3F303038A704B70CAE79DF82C3042
:10069000174AC3EB43115B0803EB41039BB2138181
:1006A000BFE7144A0023106808A907AA00F0FCFE5F
:1006B000079B002BB5D04FF0E0234FF08052C3F8DA
:1006C000042DAEE743F004035370537864F3410301
:1006D0005370A6E7537843F002035370537864F3E2
:1006E000820353709DE700BF006800401C0000209B
:1006F0001000002020000020014603480023322281
:10070000006800F03BBD00BF24000020F0B5037A74
:10071000044613F0200283B00AD0344E3278002A07
:100720003AD013F0400308D1314A137003B0F0BD42
:100730002E4913F040030A70F6D02D4B1A78002A88
:10074000F4D101212B4E72781970D30702D533787A
:10075000002B46D1237B43F0800323730A2301AD92
:10076000022228462349E37302F09CFC15270DE082
:1007700072786B789A42D9D17B1E13F0FF07D5D0DF
:100780002046FFF7B9FF052001F004FD32782B78F1
:100790009A42EDD003B0F0BD01270A230222377040
:1007A000E373637B01AD62F346132846114963731B
:1007B00002F078FC15270F4E0DE072786B789A42A4
:1007C000B4D17B1E13F0FF07B0D02046FFF794FF93
:1007D000052001F0DFFC32782B789A42EDD003B08F
:1007E000F0BD237B43F020032373B7E729000020EB
:1007F000280000201C00002010B54FF4417000F0CC
:10080000F1FB40F2033000F0EDFB4FF48053002287
:100810000221064800F038FABDE810404FF440537A
:1008200000220221024800F02FBA00BF0010014050
:10083000000C01404FF44051014800F05CBA00BF89
:10084000000C01404FF48051014800F052BA00BF43
:10085000001001404FF48051014800F04CBA00BF35
:10086000001001404FF48051014800F047BA00BF2A
:100870000010014008B5074C05E0FFF7E3FF4FF417
:10088000FA7001F087FCE378012BF6D0FFF7E2FF66
:10089000F5E700BF10000020FEE700BF30B50024E0
:1008A000022583B0094800F03FFBFFF7A5FFFFF7E3
:1008B0009DFC80222346064901940095054801F0DD
:1008C00075F901F099FA204603B030BDE83100080F
:1008D000A031000875080008044B98420CBF40F294
:1008E000192040F21A2000F08ABB00BF00640040CB
:1008F0002DE9F3410468884624F00204046004688A
:10090000964644F0010404604FF6FF749DF820C041
:100910009DF824109DF828209DF83C609DF84070BB
:100920000194019C051D013C019414B14468E40745
:10093000F7D54468E4076ED50024C4610468B8F1B3
:10094000000F4FD044F0800404600468BEF1000F33
:100950004BD044F040040460002B49D0036843F0BE
:10096000200303600368BCF1000F45D043F010037F
:1009700003600368002942D043F008030360036862
:10098000002A3FD043F004030360C369002F3CD02A
:1009900043F00043C361C369002E39D043F0804364
:1009A000C3610E9B0D99013BC3F309030B430C99E3
:1009B000C2690B430B990B431343C361036823F0D4
:1009C000010303604FF6FF730193019B013B019309
:1009D00013B12B68DB07F8D4406800F0010002B0C7
:1009E000BDE8F08124F08004AEE724F04004B2E7D3
:1009F000036823F02003B4E723F01003B8E723F0E3
:100A00000803BBE723F00403BEE723F00043C1E77C
:100A100023F08043C4E70120E1E70000F0B50125A1
:100A2000234C9DF81C70D4F80066854046F0010602
:100A3000C4F80066D4F81CE6EE432EEA050EC4F8AE
:100A40001CE639B3D4F80C162943C4F80C162AB3A3
:100A5000D4F804262A4300F1006000F6C840C4F828
:100A60000426C0000360069A059B4360104BCAB180
:100A7000D3F814262A43C3F8142627B1D3F81C262A
:100A80002A43C3F81C26D3F8002622F00102C3F83B
:100A90000026F0BDD4F80C163140D6E7D4F8042671
:100AA0003240D8E7D3F814261640C3F81466E4E7BA
:100AB0000060004030B4BDF808409DF8105044EA92
:100AC0000344049542EA01430294012230BC002110
:100AD000FFF7A4BF43690B43436170472DE9F04121
:100AE000804680689DF818E04501079E38D4D8F804
:100AF0000800040138D4D8F80800C0005ED54FF4CF
:100B0000D075022005EB080492B3C90041F004013E
:100B100045F808101BB1236843F0020323606368A3
:100B200023F00F03636062680EF00F0313436360EA
:100B30000EF1FF33072B38D801A252F823F000BF83
:100B4000A50B00089F0B0008990B00088F0B0008ED
:100B5000890B0008830B00087D0B0008750B00084B
:100B60004FF4C0750020CDE74FF4C8750120C9E7E8
:100B70004905CDE70027F37963F31F67B37963F382
:100B80001747737963F30F27337963F307074FF040
:100B9000000CF37863F31F6CB37863F3174C73782E
:100BA00063F30F2C337863F3070CC4F808C0E760D5
:100BB000236843F001032360BDE8F0814FF0FF306C
:100BC000FAE700BF21B9C36843F02003C360704750
:100BD000036943F02003036170472DE9F3474FF4A5
:100BE000D876DDE90AA9DDE90C8EDDE90E4C4FF47B
:100BF000E075CDE9006502AD05EB810555F8087C8F
:100C0000C559C61915F0040515BF01258AF800500D
:100C10008AF80050C55916BFC5596D0DED081D6005
:100C2000C359C3F3400389F8003073681B0A88F87E
:100C30000030736803F00F038EF80030BCF1000F32
:100C400003D073681B0CACF80030B568F368C5F3CB
:100C5000072625706670C5F30746C5F30765E5707E
:100C6000C3F3072523716571C3F30745C3F3076316
:100C7000A670A571E37122B102B0BDE8F047FFF79D
:100C8000A1BF02B0BDE8F0872DE9F04300264FF088
:100C90000F089C46036847684CFA06F414F0010FED
:100CA00006F1010E1DD0072E94BF9946B946B4B285
:100CB0004FEA84048ABF203CA4B2A4B208FA04F527
:100CC00029EA0509A51C02FA05F501FA04F42C43EA
:100CD000072E44EA090405D8234676463C462746B3
:100CE000DAE73C467646102EF9D103604460BDE851
:100CF000F08301617047090401617047C36801EA2C
:100D0000030221EA030141EA024101617047000048
:100D1000062830D801A353F820F000BF390D000891
:100D2000430D00084D0D0008570D0008610D000827
:100D30006B0D0008710D0008104B1868C0F340607F
:100D400070470E4B1868C0F3C06070470B4B1868B3
:100D5000C0F340707047094B1868C0F340407047BB
:100D6000064B1868C0F340007047044B186AF9E757
:100D7000024B586AF6E70020704700BF001002409F
:100D8000024608B51046FFF7C3FF0028FAD008BD99
:100D9000062836D801A353F820F000BFB90D00088B
:100DA000C50D0008CF0D0008D90D0008E30D00089F
:100DB000ED0D0008F90D0008124A136843F0807326
:100DC000136070470F4A136843F08063F8E70D4AD9
:100DD000136843F08053F3E70A4A136843F48033FF
:100DE000EEE7084A136843F00103E9E7054A136A8E
:100DF00043F0010313627047024A536A43F0010350
:100E00005362704700100240034A536823F0030303
:100E100003435360704700BF00100240034A536809
:100E200023F4701343EA804353607047001002407C
:100E3000034AD36A23F4706343EA0023D362704702
:100E400000100240034AD36A23F4704343EA00339C
:100E5000D362704700100240034A536823F4803382
:100E600043EA00435360704700100240034A53684E
:100E700023F4003343EA40435360704700100240BC
:100E8000034A536823F4404343EA80335360704776
:100E900000100240034A536823F4605343EAC0231E
:100EA0005360704700100240034A536823F4E06324
:100EB00043EA00235360704700100240034A53681E
:100EC00023F0F00343EA0013536070470010024020
:100ED000044B5A6818B142F480025A60704722F4F9
:100EE0008002FAE700100240034AD36A23F00F039E
:100EF0000343D362704700BF00100240034AD36A25
:100F000023F0F00343EA0013D3627047001002405D
:100F1000044BDA6A18B142F48032DA62704722F484
:100F20008032FAE70010024010B504464378012BE6
:100F30000CBF03200420FFF72BFFFFF721FFA07851
:100F4000FFF7BCFFE078FFF7AFFF2079FFF7A2FFC4
:100F50006079FFF795FF207BFFF7BAFFA07900F0DB
:100F6000C7F82078FFF75AFF6078FFF775FFE07940
:100F700001282DD9FFF7B8FF207A08B1FFF7C8FF85
:100F8000607A08B1FFF7BAFFA07A30B1FFF750FFDF
:100F90000120FFF7FDFEFFF7F3FEE07A30B1FFF727
:100FA00051FF0220FFF7F4FEFFF7EAFE0020FFF7F3
:100FB000EFFEFFF7E5FE0220FFF726FF2269064B52
:100FC0001A606269054B1A60A269054B1A6010BD70
:100FD000FFF74CFFD0E700BF000000200800002012
:100FE000040000200122430903F1804303F5043388
:100FF000196800F01F0082400A431A6070470122FE
:10100000430903F1804303F50433196800F01F001E
:10101000824011431960196821EA02021A60704780
:10102000FEE7704738B51A4A1A4B1B498B421AD350
:1010300000211A4A93421BD34FF0E022D2F8143D0C
:10104000174C43F40073174DC2F8143DAC4212D351
:10105000154C164DAC4212D3FFF720FC144C154D25
:10106000AC4210D338BD52F8040B43F8040BDDE753
:1010700043F8041BDEE754F8043B9847E6E754F8CE
:10108000043B9847E6E754F8043B9847E8E700BF7D
:10109000103200080000002010000020942D0020D5
:1010A0000832000808320008083200080832000838
:1010B0000832000808320008012243099B0003F1AE
:1010C000604300F01F0003F5614382401A607047DF
:1010D000432893BF00F16040044B00F00F0000F57F
:1010E00064408CBFC1540170704700BF14ED00E034
:1010F000034A136823F0070303431360704700BFDC
:101100000020024070B5A0B3A1FB002305460E46A7
:101110007BBB01FB00F010F1490F2AD8483001F0E9
:101120003FFE044628B33EB300F148032360E56365
:10113000266401F01DFD0023FF20A363216CE36BF7
:10114000226801FB03F3591A626013440A4484F8CD
:101150004400A360E26084F8450004F1100001F04F
:1011600019FF04F1240001F015FF01F00DFD2046E8
:1011700070BD0024204670BD0346D7E72DE9F0433B
:10118000044685B01F460192884601F0F1FCA26B2F
:10119000E36B9A427AD3022F00F0E980002204F137
:1011A0002406019B002B00F0F780002A00F0DB8072
:1011B00001F0EAFC00F00CFF01F0DAFC94F8443096
:1011C000FF2B04BF002384F8443094F84530FF2BF4
:1011D00004BF002384F8453001F0D6FC02A801A921
:1011E00001F00EFA002840F0DD8001F0C1FCA26B96
:1011F000E36B9A426AD001F0C7FC01F0B9FC94F8A5
:10120000452055B2002D04DC11E06A1ED3B255B260
:101210006BB1636A5BB1304601F068F90028F4D025
:1012200001F01CFA6A1ED3B255B2002BF1D1FF2394
:1012300084F8453001F0A8FC01F09AFC94F84420B1
:1012400055B2002D14DD04F1100903E06A1ED3B27B
:1012500055B26BB123695BB1484601F047F90028EC
:10126000F4D001F0FBF96A1ED3B255B2002BF1D1D4
:10127000FF2384F8443001F087FC00F0B1FE01F058
:1012800077FCA36BE16B012299428AD9226CA56B92
:10129000002A70D04146002F40F0ED80606801F0D8
:1012A00001FF6368216CA2680B449342636005F1FF
:1012B000010564D3A5632268636A6260002B62D172
:1012C00001F062FC012005B0BDE8F08304F11009D3
:1012D00001F05AFC4846019901F062F801F048FC1F
:1012E00094F845305DB2002D04DC11E06B1EDAB2DB
:1012F0005DB26AB1636A5BB1304601F0F7F800286D
:10130000F4D001F0ABF96B1EDAB25DB2002AF1D174
:10131000FF2384F8453001F037FC01F029FC94F8F4
:1013200044305DB2002D04DC11E06B1EDAB25DB218
:101330006AB123695BB1484601F0D8F80028F4D0BF
:1013400001F08CF96B1EDAB25DB2002AF1D1FF23F5
:1013500084F8443001F018FC00F042FE00288ED1E1
:1013600001F0FAFB8BE702A801F03EF920E7226CBE
:10137000A56B002A5BD126680135002E70D0A563CD
:10138000636A002B9CD004F1240001F0AFF8002820
:1013900096D001F0E1FB93E701F0F6FB002005B0E9
:1013A000BDE8F08301F0E4FB94F845305DB2002D18
:1013B00014DD04F1240603E06B1EDAB25DB26AB1FB
:1013C000636A5BB1304601F091F80028F4D001F077
:1013D00045F96B1EDAB25DB2002AF1D1FF2384F821
:1013E000453001F0D1FB01F0C3FB94F844305DB20D
:1013F000002D14DD04F1100603E06B1EDAB25DB2BD
:101400006AB123695BB1304601F070F80028F4D06E
:1014100001F024F96B1EDAB25DB2002AF1D1FF238C
:1014200084F8443001F0B0FB00F0DAFDB6E7414645
:10143000E06801F037FE226CE36821689B1A8B425A
:10144000E360C2F1000202D2A3681344E360002DFE
:1014500095D10123A363636A002B3FF431AF92E778
:10146000A06801F023F9A563626AA660002A8AD108
:1014700000288ED124E7E06801F014FE226CE368B6
:1014800051429B1A2268E360934208D3022FDED0B8
:101490000135A563636A002B3FF412AF73E7A368BD
:1014A0000B44E360F2E700BF2DE9F04704469146A4
:1014B0001E460F4601F072FBA26BE36B05469A4293
:1014C00025D3022E06D00024284601F06BFB2046CF
:1014D000BDE8F08794F84580226CA36B4FFA88F83A
:1014E000D4F838A0002A3AD127680AF10106002F63
:1014F00057D0B8F1FF3FA66325D1636A002B43D1D3
:101500000124284601F04EFB2046BDE8F08794F800
:101510004580226CA36B4FFA88F8D4F838A0002AD3
:10152000E2D03946002E41D1606801F0BBFD63680E
:10153000226C0AF101061344A26863609342D8D377
:1015400023686360D5E700F0E7FE8045D8D208F154
:1015500001084FFA88F884F845800124D1E739461C
:10156000E06801F09FFD226CE36821689B1A8B42C2
:10157000E360C2F1000202D2A3681344E36056465E
:10158000012E38BF0126B4E704F1240000F0AEFFBD
:101590000028B5D0B9F1000FB2D00123C9F800304E
:1015A000AEE7A06801F082F8A760A2E7E06801F06A
:1015B00079FD226CE36821689B1A8B42E360C2F1DB
:1015C000000204D3022EDAD00AF1010691E7A368E3
:1015D0001344E360F6E700BF2DE9F043044685B00D
:1015E0008846019201F0C4FAA56B002D40F01781E6
:1015F000019B002B00F0C68002A800F0F5FF2F46EB
:1016000004F1240601F0C0FA00F0E2FC01F0B0FAA7
:1016100094F84430FF2B08BF84F8447094F84530A8
:10162000FF2B08BF84F8457001F0AEFA01A902A8AB
:1016300000F0E6FF002854D101F09AFAA36B002BCA
:1016400040F0A68004F1240901F09EFA4846019971
:1016500000F0A6FE01F08CFA94F845305DB2002D42
:1016600004DC11E06B1EDAB25DB26AB1636A5BB191
:10167000484600F03BFF0028F4D000F0EFFF6B1E5F
:10168000DAB25DB2002AF1D1FF2384F8453001F0CF
:101690007BFA01F06DFA94F844305DB2002D14DD50
:1016A00004F1100903E06B1EDAB25DB26AB123697E
:1016B0005BB1484600F01AFF0028F4D000F0CEFFDE
:1016C0006B1EDAB25DB2002AF1D1FF2384F84430F8
:1016D00001F05AFA00F084FC00284AD101F03CFAEB
:1016E00047E001F045FA94F845305DB2002D04DC86
:1016F00011E06B1EDAB25DB26AB1636A5BB130466B
:1017000000F0F4FE0028F4D000F0A8FF6B1EDAB25F
:101710005DB2002AF1D1FF2384F8453001F034FA9C
:1017200001F026FA94F844305DB2002D14DD04F186
:10173000100903E06B1EDAB25DB26AB123695BB1D6
:10174000484600F0D3FE0028F4D000F087FF6B1E5F
:10175000DAB25DB2002AF1D1FF2384F8443001F0FF
:1017600013FA00F03DFC01F003FAA36B53B101F052
:101770000BFA01F0FDF9A56B002D50D1019B002B58
:101780007FF440AF01F000FA002005B0BDE8F0831F
:1017900001F0FAF901F0ECF994F845305DB2002D52
:1017A00014DD04F1240903E06B1EDAB25DB26AB104
:1017B000636A5BB1484600F099FE0028F4D000F05F
:1017C0004DFF6B1EDAB25DB2002AF1D1FF2384F81F
:1017D000453001F0D9F901F0CBF994F844305DB20D
:1017E000002D14DD04F1100903E06B1EDAB25DB2C6
:1017F0006AB123695BB1484600F078FE0028F4D056
:1018000000F02CFF6B1EDAB25DB2002AF1D1FF238B
:1018100084F8443001F0B8F900F0E2FBA9E7226C4B
:101820005AB1E168A36811449942E16028BF216878
:10183000404628BFE16001F035FC013DA563236906
:101840002BB901F0A1F9012005B0BDE8F08304F146
:10185000100000F04BFE0028F3D001F07DF9F0E716
:1018600070B505460E46144601F082F995F84430ED
:10187000FF2B04BF002385F8443095F84530FF2B3B
:1018800004BF002385F8453001F07EF9AB6B002BD7
:1018900043D001F06DF995F845305CB2002C14DDB1
:1018A00005F1240603E0631EDAB25CB26AB16B6A2A
:1018B0005BB1304600F01AFE0028F4D000F0CEFEF6
:1018C000631EDAB25CB2002AF1D1FF2385F84530FD
:1018D00001F05AF901F04CF995F844305CB2002C53
:1018E00014DD05F1100603E0631EDAB25CB26AB1E2
:1018F0002B695BB1304600F0F9FD0028F4D000F010
:10190000ADFE631EDAB25CB2002AF1D1FF2385F886
:101910004430BDE8704001F037B92246314605F148
:10192000240000F083FDB4E7002270B5284B294C59
:101930001A6023681B6B1A68B2F1A53F03D15A687D
:10194000B2F1A53F3AD0206821683431FEF7A4FFF8
:10195000214D224A286800EB80039B00D358810068
:1019600053BB431E03EB83018900565899009EB96F
:10197000831E03EB830189005658990066B9C31E84
:1019800003EB83018900565899002EB9031F03EB1E
:101990008300800010589900194402EB8100024630
:1019A0004168083249684160914204BF496841601A
:1019B000CA6822602B6070BD0346EDE79A68B2F1F9
:1019C000A53FC0D1DB68B3F1A53FBCD1C0E700BFE4
:1019D000400000202C0100204C000020C800002006
:1019E0002DE9F04F684B186801301860002800F0AE
:1019F0008D80DFF89881D8F800309842C0F09E8042
:101A0000634C23681B68002B00F0B6804FF0000C7D
:101A1000604A6546604F614E6BE0D3F80CA0D3F886
:101A200008B0D3F81490CBF808A0D3F808B0CAF8DF
:101A300004B0D9F804A08A4504BFD3F80CA0C9F8B3
:101A400004A05D61D9F800A00AF1FF3AC9F800A02E
:101A5000D3F82890B9F1000F18D0D3F820A0D3F80C
:101A60001CB0CBF808A0D3F81CB0CAF804B0D9F861
:101A700004A0F24504BFD3F820E0C9F804E09D6259
:101A8000D9F800E00EF1FF3EC9F800E0D3F82CE0F1
:101A9000D6F800A00EEB8E09D64502EB890988BF67
:101AA000C6F800E0D9F804E0C3F808E0DEF80890D2
:101AB000C3F80C90C9F80410CEF80810D96A01EBED
:101AC000810102EB810EC3F814E052F821E00EF11F
:101AD000010E42F821E03968D4F80090D3F82CE0E8
:101AE000C96AD9F800308E4588BF4CF0010C002B34
:101AF00045D02368DB68DB68D3F80490191D48459E
:101B000003F1180E89D2C8F800901BE0204B244A3C
:101B10001C6811681960234914600A6801320A6060
:101B20001A68126802BB4FF0FF33DFF86080C8F814
:101B30000030D8F800309842BFF462AF4FF0000C8C
:101B4000144A154F3B681849DB6A03EB83039B007B
:101B5000D3580868012B98BF002814BF012000202B
:101B600040EA0C00BDE8F08F1B68DFF82080DB68DE
:101B70001B68C8F800303EE79C46064A064F4FF007
:101B8000FF33C8F80030DDE75000002034000020AB
:101B90009C000020C80000202C0100204C000020E8
:101BA000980000203C000020400000202DE9F84370
:101BB0009600804630460D46994601F0F1F800281F
:101BC00000F0C4800746542001F0EAF804460028DB
:101BD00000F0B9805422002101F016FA384632464E
:101BE0002763A52101F010FA276B043E374427F044
:101BF0000707002D4DD095F9003084F83430002BC4
:101C000044D095F9013084F83530FBB395F90230B2
:101C100084F83630D3B395F9033084F83730ABB35A
:101C200095F9043084F8383083B395F9053084F899
:101C300039305BB395F9063084F83A3033B395F90F
:101C4000073084F83B300BB395F9083084F83C300A
:101C5000E3B195F9093084F83D30BBB195F90A300C
:101C600084F83E3093B195F90B3084F83F306BB176
:101C700095F90C3084F8403043B195F90D3084F873
:101C800041301BB195F90E3084F84230002384F8BE
:101C90004330089D261D042D28BF04253046E562EB
:101CA000656401F083F9C5F1050504F1180001F040
:101CB0007DF94A4641463846A5612461646200F0D8
:101CC00039FF099B206003B11C6000F051FF3D4AC1
:101CD0003D4F1368013313603B68002B40D0DFF8A1
:101CE000EC80E36AD8F80020002A33D0384D394917
:101CF00039480A6801320A6002689A4238BF0360B4
:101D000003EB830305EB83035B68A3609A68E260DF
:101D100056609E60E36A03EB830305EB8302626116
:101D20009B00EA580132EA5000F02EFFD8F800304C
:101D300033B13A68E36AD26A9A4201D200F00CFFEA
:101D40000120BDE8F883384601F0D0F84FF0FF30AD
:101D5000BDE8F8833A68D26A9A4298BF3C60C5E70A
:101D60003C601368012B04D0E36A194DDFF85C80F6
:101D7000BDE7174DA84605F16409404608F114086F
:101D800001F008F9C145F8D1DFF85090DFF8508034
:101D9000484601F0FFF8404601F0FCF8114801F018
:101DA000F9F8114801F0F6F8104801F0F3F8104B7B
:101DB000C3F800900F4BC3F80080E36ADFF80C8093
:101DC00095E700BF540000202C01002048000020AF
:101DD000C8000020380000204C000020B400002083
:101DE000A000002084000020700000205800002087
:101DF0009C000020980000202DE9F8434FF48070EB
:101E000000F0CEFF002871D00546542000F0C8FF36
:101E1000044600286ED000275422002101F0F4F877
:101E20004FF48072A5212846256301F0EDF8554B4B
:101E3000261D6363304684F8387084F84370E76287
:101E40006764256B01F0B2F804F1180001F0AEF8F8
:101E50000523FC3525F007053A464B49A361284682
:101E60002461646200F066FE484B20601C6000F054
:101E70007FFE474ADFF81C81136801331360D8F8EE
:101E80000030002B45D0444DE36A2A68002A38D040
:101E9000424F434943480A6801320A6002689A4245
:101EA00038BF036003EB830307EB83035B68A36026
:101EB0009A68E26056609E60E36A03EB830307EB77
:101EC000830262619B00FA580132FA5000F05CFE16
:101ED0002B683BB1D8F80020E36AD26A9A4201D25B
:101EE00000F03AFE00F0C6FD01281BD02E4B1B6807
:101EF000BDE8F883284600F0F9FF2B4B1B68BDE8CE
:101F0000F883D8F80020D26A9A4298BFC8F80040F7
:101F1000BEE7C8F800401368012B0FD0E36A1F4FDB
:101F20001D4DB6E772B64FF0FF3400221F49204B1B
:101F30000C6028601A6000F08FFED7E7174F3D460F
:101F400007F164092846143501F024F84D45F9D10C
:101F5000DFF86090184D484601F01CF8284601F063
:101F600019F8164801F016F8154801F013F815484D
:101F700001F010F8144BC3F80090144B1D60E36A95
:101F8000054D86E749444C451122000830000020E9
:101F9000540000202C01002048000020C800002030
:101FA000380000204C0000200432000834000020DB
:101FB00050000020B4000020A00000208400002079
:101FC00070000020580000209C0000209800002095
:101FD000024A136801331360704700BF2C000020D1
:101FE0002DE9F047614C00F0C3FD2368013B2360FD
:101FF0002268002A40F0A4805D4B1B68002B00F093
:102000009F805C490B68002B00F0AE804FF0010C04
:10201000594E5A4B5A4F5B4DC868D0F80CE0DEF869
:102020002000DEF81C90DEF82880C9F80800DEF8F1
:102030001C90C0F80490D8F804000EF11809484527
:1020400004BFDEF82000C8F80400CEF82820D8F835
:1020500000000138C8F80000DEF80C00DEF8089037
:10206000DEF81480C9F80800DEF80890C0F8049083
:10207000D8F804000EF10409484504BFDEF80C004E
:10208000C8F80400CEF81420D8F800000138C8F8C9
:102090000000DEF82C00D6F800A000EB80085045C8
:1020A00003EB880888BF3060D8F80400CEF8080039
:1020B000D0F80880CEF80C80C8F80490C0F80890DA
:1020C000DEF82C0000EB800003EB8008CEF81480D3
:1020D00053F8208008F1010843F820803868DEF8C2
:1020E0002CE0C06A864531D3C5F800C008680028D6
:1020F00092D1254B1A681268002A30D01A68234BF7
:10210000D26812681A60224F3E689EB14FF00108F3
:1021100006E0FFF765FC08B1C5F80080013E08D075
:102120002368002BF5D03B68013E03F101033B60BF
:10213000F6D13E602B681BB100F00EFD012400E0DB
:10214000002400F021FD2046BDE8F0870868002843
:102150007FF462AF0C4B1A681268002ACED14FF0A0
:10216000FF320A4B1A60CEE7064DCCE72C00002068
:1021700054000020840000204C000020C8000020F3
:102180002C010020400000209C0000203400002092
:102190004400002008B900F0DFBC70B5164A0446C0
:1021A000136801331360154B154D1E682868043001
:1021B00000F018FF2B68A4195C600ED2114B186850
:1021C0002968043100F0F6FE0F4B1A68944238BFBC
:1021D0001C60FFF705FF50B170BD0C4B18682968F3
:1021E000043100F0E7FEFFF7FBFE0028F4D1BDE864
:1021F000704000F0B1BC00BF2C0000205000002057
:102200002C0100209C0000203400002098000020B9
:102210002DE9F84F344D354F354EDFF8D880DFF8D3
:10222000D8A0DFF8D890DFF8D8B014E000F0A0FC18
:10223000FB68DC68201D00F0D5FE3368013B33608D
:102240002B68013B2B6000F09FFC206B00F04EFEE2
:10225000204600F04BFE2B68002BE7D1D8F8003069
:10226000012B01D900F078FCDAF8003003BBD9F873
:102270000030DB6A002BEED1D8F80030012BEAD811
:10228000204B214A1B6812689B1A012BE3D9DBF80B
:1022900000300133CBF80030DAF8003083B1D9F8E0
:1022A0000030DB6A0BB9D8F80030FFF799FED2E7AF
:1022B000D9F80030DB6A002BCDD1D8F80030CAE75E
:1022C000D9F80030DB6A002BEFD1D8F80030012BB1
:1022D000EBD80C4B18680C4B1B68C01A0128E4D9CA
:1022E00000F0DEFCE1E700BF6C0000207000002081
:1022F00054000020C80000204C0000202C010020C9
:102300002C0000203400002050000020014B1868F1
:10231000704700BF50000020014B1868704700BF95
:102320005400002038B50C4D0C4A2B681268034449
:102330009342044603D02B6823442B6038BD00F041
:1023400017FC074A013C13680133136000F01CFCC2
:102350002B6823442B6038BD50000020340000203F
:1023600044000020054B1B680BB9FFF739BB044A3A
:102370000020136801331360704700BF2C00002059
:1023800044000020044B1B681BB10122034B1A6060
:102390007047FFF7C9BA00BF2C00002040000020A2
:1023A00070B50C461B4D2968183100F003FE1A4B1E
:1023B0001E682868043000F015FE631C17D02B68D7
:1023C000A4195C6007D3154B18682968BDE87040F4
:1023D000043100F0EFBD124B18682968043100F099
:1023E000E9FD104B1A68944238BF1C6070BD0E4B5B
:1023F00029685A682E688A60286829682D681C68D0
:10240000043001341C6094680431F46060609160B1
:102410006B6170BD2C01002050000020980000204E
:102420009C00002034000020580000202DE9F041DD
:10243000284C4368D4F80080D4F800E0C8F81C3079
:10244000276826680D46D4F800C0996818371836F2
:10245000CEF820104F609E60CCF82800036801334E
:1024600003601D4BC2B11B682068043000F0BAFD48
:102470001A4B21685A6826688A6020682168256896
:102480001C68043001341C6094680431F46060609E
:1024900091606B61BDE8F0811E682068043000F037
:1024A000A1FD2368AD195D6007D30D4B1868216845
:1024B000BDE8F041043100F07DBD0A4B1868216889
:1024C000043100F077FD084B1A68954238BF1D6053
:1024D000BDE8F0812C0100205000002058000020B1
:1024E000980000209C0000203400002010B4C36835
:1024F000DB68D869196A9A6A8160DC6903F118009F
:102500004C605168304C814204BF196A516000210F
:1025100099621168013911602268002A34D19868E3
:10252000D9685A6981609C68181D4C605168274CB5
:10253000814204BFD9685160002159611168013995
:1025400011602168DA6A8A42214988BF226002EB61
:10255000820201EB820252689A609468DC606060DB
:102560009060DA6A1B4C02EB820201EB8200586138
:10257000920088580130885022681268F2B94FF0F2
:10258000FF31154A11600AE0144A5468DC61A16801
:10259000196248601168A06001319A6211601049A7
:1025A000DA6A0B68DB6A9A4205D901230D4A18469C
:1025B000136010BC7047002010BC70472168064AA9
:1025C000C96809681160EAE72C0000204C0000206F
:1025D000C80000209C00002034000020840000205F
:1025E0002C01002040000020034A044B12681B68A5
:1025F000C0E90023704700BF3C00002050000020CD
:10260000F8B50D46044600F0B3FA2B68114A581C81
:10261000116819D0104ED4F800C037686068BC4506
:1026200008D0884206D8002301242B6000F0ACFAC1
:102630002046F8BD0F1ABB42F5D95B1A3168126803
:1026400003442B60C4E90012002400F09DFA2046E8
:10265000F8BD00BF500000203C0000200122014BCB
:102660001A607047400000200B4B186818B90B4BDC
:102670001B6813B1704700207047094A12680AB1FD
:1026800018467047074A084B10681B68013B984280
:102690000CBF022001207047840000204000002071
:1026A00044000020580000205400002058B138B5E4
:1026B000836CC16A426C013B91420446836400D042
:1026C0001BB1002038BD00207047051D284600F0D2
:1026D00089FC636C0F4AC3F10500A06101201168F9
:1026E000E3628B4288BF13600B4A03EB830302EB68
:1026F00083035B68A3609968E1604D609D60E36A55
:1027000003EB830302EB830161619B00D158014419
:10271000D15038BD4C000020C80000202DE9F04FFA
:10272000DFF8DC82DFF8DCA2DFF8DC92B74E87B09E
:10273000D8F800301C68002C40F0FA80FFF748FC05
:10274000FFF7E4FDDAF800308346834251D8D9F828
:102750000030CAF800001A68B2FA82F252093068F2
:10276000A4EB0B01FFF77CF8FFF73AFC002800F020
:1027700003810022306802A9FEF72EFF0028D7D07F
:10278000029B0498002BC0F2CB80DDF810B0DBF880
:1027900014201AB10BF1040000F024FCFFF7B6FD81
:1027A000DAF80020019090424BD3029A019B013A43
:1027B000CAF80030082ADCD801A151F822F000BF85
:1027C000852800088528000801290008CB28000872
:1027D0000F2900088528000885280008012900081D
:1027E000CB28000823F0010384F824302046236A14
:1027F0009847D8F800301A68002A00F0AB80DB68F0
:10280000DC681D68271D384600F0ECFB94F8243086
:102810005A07E7D502E02046236A9847A369246156
:10282000EA18ED186260F6D33946D9F8000000F0D6
:10283000C1FBDBE722F0010284F824202046226A53
:102840009047D8F800201168002900F08E80D268E7
:10285000D4681568271D384600F0C4FB94F824207E
:102860005007E7D502E02046226A9047A26924611A
:102870005119AD186160F6D33946D9F8000000F05F
:1028800099FBDBE79BF824000399DBF81820019BF8
:102890008C1840F001058BF824502CBF0125002531
:1028A0009C42CBF80440CBF810B068D8591A8A4241
:1028B0001FD8410700F1B28020F001008BF82400FE
:1028C0005846DBF82030984753E70399019B9BF863
:1028D0002420C81842F0010298428BF82420CBF83B
:1028E0001810CBF80400CBF810B04CD800293FF4F6
:1028F00040AFD9F800000BF1040100F05BFB38E7B2
:102900009BF8242022F001028BF8242031E79BF869
:102910002420930770D522F001028BF8242028E7A9
:10292000039B05999847029B002BFFF622AF2CE7EB
:10293000DB681C68FFF74CFBFFF7E8FCDAF80030B7
:10294000834683423FF655AF8442CAF8000021D93E
:10295000002204E7D9F80020CAF800B0C8F8002027
:10296000C9F80030FFF73CFB03E7D9F80010C9F8BD
:102970000020C8F8001018E700F0EEF8F9E69942D8
:1029800001D9002D95D0D8F800000BF1040100F01A
:1029900011FBEEE6FFF724FBD8F80030DB68DD68BA
:1029A0002B1D1846019300F01DFB95F824305F079E
:1029B0000DD423F0010385F8243028462B6A98476C
:1029C000D7E68A4224D828462A6A90473C46AA6914
:1029D000ABEB0401A7182CBF012000205F456F60FE
:1029E0002D61EED95C4501D90028ECD00199D8F8C9
:1029F000000000F0DFFAE0E7584600F077FAB8E6AA
:102A000040010020300100203C010020380100205E
:102A10000199D9F8000000F0CDFACEE703991144EE
:102A200008E082421ED8DBF8202058469047214615
:102A3000DBF81820019B54182CBF01250025A34268
:102A4000A3EB0100CBF80440CBF810B0E9D28B42E5
:102A500001D2002DE7D0D8F800000BF1040100F0FE
:102A6000A9FA2DE7D9F800000BF1040100F0A2FA51
:102A700026E700BFF0B5144C83B000F079F8256864
:102A80007DB100F081F8206848B103240F4800238D
:102A9000019040220E490F480094FFF787F803B0D9
:102AA000F0BD0D4E0D4F304600F074FA384600F080
:102AB00071FA0B4A0B4B176010212A460A201E6040
:102AC000FEF720FB2060DCE7380100203401002005
:102AD000A83100081D2700085801002044010020EB
:102AE0003C01002040010020002382B0019372B617
:102AF000019B002BFCD002B0704700BF000000001B
:102B00000B4A13681868203080F30988022080F38C
:102B10001488BFF36F8F3FBCAE4608BC04BC62B6DE
:102B2000184700BFAFF30080AFF30080AFF3008021
:102B30002C01002010B44FF08074054B40E90214C2
:102B400040F80C3C40F8202C10BC4038704700BFC7
:102B5000E92A0008704700BF4FF0E0234FF0805291
:102B6000C3F8042DBFF34F8FBFF36F8F704700BFC3
:102B700072B6044A136801331360BFF34F8FBFF37B
:102B80006F8F70470C000020034A1368013B1360ED
:102B900003B962B6704700BF0C000020EFF310804D
:102BA00072B6704780F31088704700BF00000000C5
:102BB000EFF309800E4B1A6820381060F0C04446CD
:102BC0004D4656465F46F0C008B572B6FFF7DAFBD1
:102BD00062B60CBC116808681030F0C8A046A9465F
:102BE000B246BB4680F309882038F0C8184700BFBA
:102BF0002C01002010B5FFF7D1FF0446FFF7B2FB10
:102C000028B14FF0E0234FF08052C3F8042D204646
:102C1000BDE81040FFF7C6BF70B4E9255E244FF051
:102C2000E023002207210748074E06600748056099
:102C30000748046007481A619A615861196170BCBD
:102C4000704700BF7401002040190100700100208E
:102C50006C0100203F1901004FF0E02310B5002463
:102C6000D3F8202D82B042F47F02C3F8202DD3F890
:102C7000202D42F07F42C3F8202DFFF7CDFF074BF8
:102C80001C60FFF73DFFFFF77DFB019472B6019BCF
:102C9000002BFCD0002002B010BD00BF0C000020B3
:102CA00070B53C4B04461D6872B6BFF34F8FBFF33F
:102CB0006F8FFFF7D9FC00285AD04FF0E022062191
:102CC000A5422B4628BF2346334C116191692568E4
:102CD000D2F8046D002908BF2946581E760105FB6D
:102CE000001105D54FF00075C2F8045D2268891AFD
:102CF0002A4E002532688A4238BF891A4FF0E022F6
:102D000051619561156945F00105156123B1BFF366
:102D10004F8F30BFBFF36F8F62B6BFF34F8FBFF3DC
:102D20006F8F72B6BFF34F8FBFF36F8F4FF0E02CF2
:102D30000622CCF81020DCF810502268ED0319D4DC
:102D400002FB03F3DCF81810581AB0FBF2F000FB9A
:102D50000222C91A0A44CCF814204FF0E0230722BB
:102D6000002199611A612268013A5A61FFF7DAFA83
:102D700062B670BDDCF8183035681344013B5B1A4D
:102D80009D4204D3531E4FF0E0225361E5E79A427F
:102D9000F9D2F7E770010020740100206C010020D7
:102DA0002DE9F0410446FFF713F9494A116861B172
:102DB00034B104F0070CACF11103A3421ED200247D
:102DC000FFF70EF92046BDE8F0810020414B59077E
:102DD0001CBF073323F007031D463F490B604860C3
:102DE0003E4921F0070111603D4ACB1A13603D4A6C
:102DF000C1E900001360C5E90013D9E71034A4EB62
:102E00000C07002FDBDD374D2E68BE42D7D3324B87
:102E100018461B6803E01A6822B1184613465A6820
:102E2000BA42F8D38B42CAD0ACEB040C1C4654F81F
:102E3000082B026058680CEB0002102A15D82849AC
:102E4000361A2E600D6840F00040AE424FF000058B
:102E500038BF0E60244958600A681D6001320A605C
:102E6000FFF7BEF82046BDE8F081D81942601A4A43
:102E70005F60174612689042FBD8D7F804C0D0F8BC
:102E800004E007EB0C08404509D000EB0E0C62454E
:102E900015D00260B84218BF38605868CFE70CEB15
:102EA0000E0007EB000C62457860F6D18A42F4D040
:102EB000526802447A603A6812683A60EDE78A42E2
:102EC000E7D05268724442603A6812680260E1E7F3
:102ED00088010020940100208C0100208C2D00200E
:102EE00080010020840100207C01002090B338B5CF
:102EF00050F8043C0446002B00DB38BD50F8082C89
:102F0000002AFAD123F0004340F8043CA0F1080560
:102F1000FFF75EF81B4854F8041C02681A4B0A4479
:102F200002601A461B689D42FBD8506802EB000CF9
:102F3000654510D0681883421ED044F8083CAA4268
:102F400018BF1560114A136801331360BDE838409B
:102F5000FFF746B870470144501883425160F1D1E1
:102F60000B4800689842EDD015465B680B446B60D7
:102F700013681B682B60E2E7054800688342F4D1C0
:102F8000DBE700BF840100208C01002078010020D5
:102F9000880100204FF0FF31002200F10803436058
:102FA0008160C36003610260704700BF002303615A
:102FB000704700BF30B40D686B1C10D000F10803DF
:102FC0001C465B681A68AA42FAD94B6099608C600B
:102FD00061600861036830BC0133036070470469B5
:102FE0006368F2E74168826803698A6041685160FA
:102FF0005A68824204BF82685A60002202611A68DD
:10300000013A1A6018687047830730B546D0844685
:10301000841805E0634603F8011B9D0703D09C4616
:10302000A445F7D130BD013A0244A2EB0C02032AB9
:1030300029D9CCB204EB04240F2A04EB04442FD981
:10304000A2F1100C2CF00F0C03F11005AC44C3E9F5
:103050000044C3E9024410336345F8D112F00C0F69
:1030600002F00F0E18D01A462EF0030C9C44AEF15D
:10307000040542F8044B6245FBD125F003040433F8
:103080000EF003022344002ACCD0C9B21A4403F83C
:10309000011B9342FBD130BD7246F4E70346C6E7FD
:1030A0009646E0E7844641EA000313F0030349D162
:1030B000403A23D30B6803604B6843608B6883609E
:1030C000CB68C3600B6903614B6943618B698361A2
:1030D000CB69C3610B6A03624B6A43628B6A83628A
:1030E000CB6AC3620B6B03634B6B43638B6B836372
:1030F000CB6BC36340304031403ADBD230320BD32C
:103100000B6803604B6843608B688360CB68C36067
:1031100010301031103AF3D20C3205D351F8043B81
:1031200040F8043B043AF9D2043208D0D2071CBF5D
:1031300011F8013B00F8013B01D30B880380604686
:10314000704700BF082A13D38B07B1D010F00303D8
:10315000AED0C3F10403D21ADB071CBF11F8013B48
:1031600000F8013BA4D331F8023B20F8023B9FE773
:10317000043AD9D3013A11F8013B00F8013BF9D2E6
:103180000B7803704B7843708B7883706046704780
:1031900063616E547800000063616E527800000035
:1031A000626C696E6B000000546D72205376630090
:1031B000040000000000000000000000000000000B
:1031C00000366E0100366E0100366E010A00000402
:1031D000000301000000000001000000006CDC02A0
:1031E00000366E01006CDC020E00000400030200D9
:1031F00000000000000000000090D0030048E8013B
:083200000090D003040000005F
:083208009CFEFF7F01000000A5
:1032100000127A0000127A0000127A00AAAAAAAA62
:0400000508001025BA
:00000001FF
